:020000040800F2
:100000008029002089010008D1040008C9040008E3
:10001000CD04000829030008BF0F000800000000FD
:10002000000000000000000000000000CD090008F2
:100030002D03000800000000650500080D0B0008F6
:10004000A3010008A3010008A3010008A301000800
:10005000A3010008A3010008A3010008A3010008F0
:10006000A3010008A3010008A3010008A3010008E0
:10007000A3010008A3010008A3010008A3010008D0
:10008000A3010008A3010008A3010008A3010008C0
:10009000A3010008A3010008A3010008A3010008B0
:1000A000A3010008A3010008A3010008A3010008A0
:1000B000710B00088D0B0008AD0B0008A3010008B0
:1000C000A3010008A3010008A3010008A301000880
:1000D000A3010008A3010008E50C0008A301000823
:1000E000A3010008A3010008A301000800F002F822
:1000F00000F03AF80AA090E8000C82448344AAF188
:100100000107DA4501D100F02FF8AFF2090EBAE885
:100110000F0013F0010F18BFFB1A43F0010318473B
:100120002421000044210000103A24BF78C878C17F
:10013000FAD8520724BF30C830C144BF04680C60ED
:10014000704700000023002400250026103A28BF35
:1001500078C1FBD8520728BF30C148BF0B60704739
:100160001FB51FBD10B510BD00F031F81146FFF7E7
:10017000F7FF01F0F3F800F04FF803B4FFF7F2FFD8
:1001800003BC00F057F800000948804709480047C1
:10019000FEE7FEE7FEE7FEE7FEE7FEE7FEE7FEE737
:1001A000FEE7FEE704480549054A064B7047000094
:1001B000110B0008ED00000880230020802900209A
:1001C00080250020802500207047704770477546C5
:1001D00000F02CF8AE4605006946534620F00700B3
:1001E000854618B020B5FFF7DDFFBDE820404FF091
:1001F00000064FF000074FF000084FF0000B21F011
:100200000701AC46ACE8C009ACE8C009ACE8C009DD
:10021000ACE8C0098D46704710B50446AFF30080C6
:100220002046BDE81040FFF7A8BF00000048704717
:100230002023002001491820ABBEFEE72600020063
:100240007047000010B500F013FB00201A49086049
:10025000022000F0ABFF01201849C1F898010220EC
:1002600000F0A4FFFF2000F027FC002000F033FC8A
:100270000521084600F027FC0521062000F023FC9C
:100280000521072000F01FFC0521082000F01BFCC1
:100290000521092000F017FC05210A2000F013FCBD
:1002A00005210B2000F00FFC05210C2000F00BFCB9
:1002B00000F03DF810BD00009881214200802142ED
:1002C00010B50446002007490860200A064900F0DE
:1002D0004BFBE0B2044900F047FB01200349C1F8A1
:1002E000BC0110BDBC0121422000002000002142C1
:1002F00030B504460D46002008490860012101EB95
:100300004401C8B2064900F02FFB0549284600F019
:100310002BFB01200349C1F8BC0130BDBC012142C7
:10032000200000200000214200BFFEE7704700B51A
:100330004FF42040FFF7C4FF00BD2DE9F041024615
:1003400000250026002000230024002791F803C088
:100350000CF00F0591F803C00CF0100CBCF1000F6D
:1003600003D091F802C04CEA050591F800C0BCF139
:10037000000F31D0146800202BE04FF0010C0CFA74
:1003800000F3B1F800C00CEA03069E4220D18300BE
:100390004FF00F0C0CFA03F7BC4305FA03FC4CEAD0
:1003A000040491F803C0BCF1280F06D14FF0010CF2
:1003B0000CFA00FCC2F814C00AE091F803C0BCF1CA
:1003C000480F05D14FF0010C0CFA00FCC2F810C028
:1003D000401C0828D1D31460B1F800C0BCF1FF0F55
:1003E00034DD546800202EE000F1080C4FF00108C5
:1003F00008FA0CF3B1F800C00CEA03069E4221D1C2
:1004000083004FF00F0C0CFA03F7BC4305FA03FC12
:100410004CEA040491F803C0BCF1280F05D100F1A7
:10042000080C08FA0CF8C2F8148091F803C0BCF16B
:10043000480F07D100F1080C4FF0010808FA0CF83A
:10044000C2F81080401C0828CED35460BDE8F0816B
:100450000146886880B2704741617047016170470A
:1004600030B50546002400BF20E000201149086097
:10047000114900F079FA1149002000F075FA0E498F
:10048000FF2000F071FA0D49FF2000F06DFA012005
:100490000B49C1F8BC01094800780749097840EACE
:1004A0000120084921F81400601C84B2AC42DCDB56
:1004B00030BD0000BC0121422000002021000020AE
:1004C000000021420023002000BFFEE700BFFEE73E
:1004D000704710B54FF4A06000F03AF810BD00006E
:1004E00070B5002100230F22C47804B3154C246892
:1004F00004F4E064C4F5E064210AC1F10403CA40D5
:10050000447804FA03F184781440214309010E4C25
:100510000678A155047804F01F050124AC40057845
:100520006D11AD0005F1E025C5F8004109E0047842
:1005300004F01F050124AC40044D0678761145F8FF
:10054000264070BD0CED00E000E400E080E100E03A
:1005500002490143024A1160704700000000FA0599
:100560000CED00E07047000029B1064AD269024351
:10057000044BDA6104E0034AD2698243014BDA6139
:10058000704700000010024029B1064A1269024378
:10059000044B1A6104E0034A12698243014B1A6159
:1005A000704700000010024029B1064A92690243D8
:1005B000044B9A6104E0034A92698243014B9A61B9
:1005C000704700000010024029B1064AD268024379
:1005D000044BDA6004E0034AD2688243014BDA60DC
:1005E000704700000010024030B5002100220024B6
:1005F00000232D4D6D6805F00C0121B1042905D0B3
:10060000082923D105E0294D056022E0274D05602A
:100610001FE0254D6D6805F47012234D6D6805F4DB
:100620008034022505EB92421CB9214D55430560EB
:100630000BE01D4D6D6805F400351DB11C4D554393
:10064000056002E0194D5543056002E0174D056055
:1006500000BF00BF144D6D6805F0F0010909154D8C
:100660006B5C0568DD4045600F4D6D6805F4E06129
:10067000090A104D6B5C4568DD4085600A4D6D6868
:1006800005F46051C90A0B4D6B5C4568DD40C560DF
:10069000054D6D6805F44041890B074D6B5CC568DD
:1006A000B5FBF3F5056130BD0010024000127A0081
:1006B00000093D00000000201000002070B5044635
:1006C0000D4601200D4908600BE000BF80210C4859
:1006D00000F0A4FB0028F9D014F8011B084800F032
:1006E0006AFC281EA5F10101CDB2EED100BF402168
:1006F000034800F093FB0028F9D070BD840121422B
:100700000044004010B54D48007801287ED101F02A
:10071000C5F84B490978884257D1494840780128A3
:100720001BD047484078022817D045484078032816
:1007300013D04348407804280FD04148407805281A
:100740000BD03F484078062807D03D4840780F2816
:1007500003D03B484078102859D13948C0783849EF
:10076000897840EA01203749088008460088B0F5BA
:100770007A7F3BDA34480078801EC1B2304800F0FE
:10078000B9FC3249088030480088401E2C49095C79
:100790002D480088801E2A4A105C41EA00242B481C
:1007A0000088A04212D110464078012804D00228C7
:1007B00005D0032809D105E000F038FE05E000F07F
:1007C000FBFE02E000F0BEFF00BF2FE01C480078F7
:1007D0001F4908701A48407840F080004870042093
:1007E000887003211A48FFF769FF1FE0144800785A
:1007F000174908701248407840F080004870022085
:10080000887003211248FFF759FF0FE015E00C48EC
:1008100000780F4908700A48407840F0800048701E
:100820000120887003210A48FFF748FF0020034990
:100830000870054908800749086010BD3C00002089
:10084000400000201A000020180000201E00002098
:10085000400800208401214221B1028842F0400278
:10086000028004E002884FF6BF731A40028070478E
:1008700008B501210420FFF797FE01210820FFF7AA
:1008800093FE4FF40040ADF8000010208DF80300F7
:1008900003208DF8020069461B48FFF74EFD4FF418
:1008A00000411948FFF7D8FD2820ADF800001020BE
:1008B0008DF8030003208DF8020069461348FFF706
:1008C0003CFD28211148FFF7C7FD4020ADF800008E
:1008D00010208DF8030003208DF8020040210B4802
:1008E000FFF7BCFD1020ADF8000004208DF80300D8
:1008F00003208DF8020069460448FFF71EFD102111
:100900000248FFF7A9FD08BD00080140000C0140A6
:100910000246002013890B400BB1012000E00020AB
:1009200070470146888970478181704710B5002261
:10093000028802F441520B884C8823438C8823435D
:10094000CC8823430C8923434C8923438C8923433C
:10095000CC8923431A430280838B4FF2FF742340D8
:1009600083830B8A038210BD10B50246002000BFAE
:1009700025E00023134C2360C0F107040123A340AA
:10098000134023B101230F4C0834236003E00023FC
:100990000C4C0834236001230A4C23600B785B065F
:1009A0001B0E0B70084BD3F810311BB10B7843F0C2
:1009B00001030B700023034C2360431CD8B20828AA
:1009C000D7DB10BD8C81214200802142704710B5D9
:1009D00000F002F810BD00000CB50020019000905E
:1009E0003348006840F480303149086000BF304827
:1009F000006800F4003000900198401C01900098BD
:100A000018B90198B0F5A06FF1D12948006800F439
:100A1000003010B10120009001E00020009000980B
:100A2000012843D12348006840F0100021490860A4
:100A30000846006820F0030008600846006840F09F
:100A4000020008601A484068194948600846406832
:100A500048600846406840F4806048600846406846
:100A600020F47C1048600846406840F4E810486074
:100A70000846006840F08070086000BF0C480068BD
:100A800000F000700028F9D00948406820F0030009
:100A9000074948600846406840F00200486000BFCF
:100AA0000348406800F00C000828F9D10CBD000094
:100AB000001002400020024010B5044621460120EB
:100AC000FFF716FC10BD30B504460D4629462046FA
:100AD000FFF70EFC30BD10B5044621460220FFF79B
:100AE00007FC10BD042808D14FF0E021096941F04E
:100AF00004014FF0E022116107E04FF0E0210969A5
:100B000021F004014FF0E0221161704770470000AE
:100B100010B51348006840F001001149086008460C
:100B20004068104908400E494860084600680E4970
:100B300008400B4908600846006820F480200860DF
:100B40000846406820F4FE0048604FF41F008860AB
:100B5000FFF73DFF4FF000600449086010BD000042
:100B6000001002400000FFF8FFFFF6FE08ED00E075
:100B700010B50121880700F046F828B10121880747
:100B800000F032F800F092FA10BD000010B501211B
:100B9000054800F038F828B10121034800F024F896
:100BA00000F0B8FB10BD00000004004010B50121AA
:100BB0000A4800F028F878B10121084800F014F83C
:100BC0000021064800F013F84FF480710448FFF745
:100BD00045FC01200349087010BD000000080040DA
:100BE000000801403C000020CA430282704721B146
:100BF000028842F00102028004E002884FF6FE7390
:100C00001A400280704730B50246002000230024BD
:100C1000158A05EA0103958905EA010413B10CB1AF
:100C2000012000E0002030BD1AB183890B4383818D
:100C300002E083898B438381704781847047000081
:100C4000002202881D4B98420ED01D4B98420BD0BB
:100C5000B0F1804F08D01B4B984205D01A4B9842F8
:100C600002D01A4B984204D14FF68F731A404B882A
:100C70001A43174B984207D0164B984204D04FF6B0
:100C8000FF431A40CB881A4302808B8883850B88E8
:100C900003850A4B98420BD0094B984208D00E4B63
:100CA000984205D00D4B984202D00D4B984201D18D
:100CB0000B7A03860123838270470000002C0140D9
:100CC000003401400004004000080040000C0040D7
:100CD000001000400014004000400140004401406A
:100CE0000048014070B540F22551164800F0A3F8C5
:100CF00038B30721134800F091F808B1012400E04F
:100D00000024104800F052F9C5B20F48008840F2A4
:100D1000FF71884215DAA4B90C480B49098845547B
:100D200009480088401C0849088001210848FFF74D
:100D30005BFF00210648FFF780FF01210448FFF711
:100D400056FF70BD00440040180000204000002005
:100D50000008004001F40072B2F5007F00D100BF2E
:100D6000CA430280704721B1828942F400528281D5
:100D700004E082894DF6FF731A40828170470000BB
:100D800010B504462048844209D101218803FFF7A9
:100D90001BFC00214FF48040FFF716FC32E01B489B
:100DA000844209D101214804FFF7EEFB00214FF4F2
:100DB0000030FFF7E9FB25E01548844209D1012105
:100DC0008804FFF7E1FB00214FF48020FFF7DCFBF4
:100DD00018E01048844209D10121C804FFF7D4FB70
:100DE00000214FF40020FFF7CFFB0BE00A488442BC
:100DF00008D101210805FFF7C7FB00214FF480103F
:100E0000FFF7C2FB10BD0000003801400044004065
:100E100000480040004C00400050004002460020C6
:100E2000B1F5007F00D100BF13880B400BB101204A
:100E300000E00020704770B5024600240023002522
:100E4000002040F66A16B14200D100BFC1F342153E
:100E500001F01F03012606FA03F3012D02D1968942
:100E6000334006E0022D02D1168A334001E0968A13
:100E700033400C12012606FA04F41688344013B1EC
:100E80000CB1012000E0002070BDF0B50346002445
:100E900000260025002040F66A17B94200D100BFA5
:100EA0001846C1F3421401F01F06012707FA06F5A0
:100EB000012C01D10C3004E0022C01D1103000E0F3
:100EC00014301AB107682F43076002E00768AF4388
:100ED0000760F0BD2DE9F04786B005460E460024B8
:100EE000A24600BFA1460027B08900B100BF2F462F
:100EF0002C8A4CF6FF700440F08804432C82AC89A5
:100F00004EF6F3100440B0883189084371890843D4
:100F10000443AC81AC8A4FF6FF400440B0890443DF
:100F2000AC8201A8FFF760FB1F48874202D1DDF8C1
:100F300010A001E0DDF80CA0A88900F4004040B149
:100F40000AEBCA0000EB0A1031684900B0FBF1F867
:100F500007E00AEBCA0000EB0A1031688900B0FB19
:100F6000F1F86420B8FBF0F004012009642101FBD2
:100F70001089A88900F4004040B1322000EBC9007C
:100F8000B0FBF1F000F00700044308E0322000EB72
:100F900009106421B0FBF1F000F00F0004432C8134
:100FA00006B0BDE8F087000000380140014688889F
:100FB000C0F308007047C1F308028280704700BF89
:100FC000FEE700002DE9FF4704468A46BAF1050F07
:100FD00057D2DFE80AF0030C14203B0043F6095017
:100FE00060432A4990FBF1F00FFA80F949E0284864
:100FF0006043284990FBF1F00FFA80F941E0A4F535
:10100000004040F63541484342F2107190FBF1F048
:101010000FFA80F935E0A4F5004000F0FEFF1E4A0B
:101020001E4BCDE9000101F00FF800221C4BCDE969
:10103000020100F06DFE054600221A4B01F004F893
:10104000074600F0BDFF0FFA80F91AE0A4F5004052
:1010500000F0E3FF104A144BCDE9000100F0F4FF6B
:10106000074600220E4B00F053FE054600220D4BB2
:1010700000F0EAFFCDE9020100F0A2FF0FFA80F9CB
:1010800000BF00BF484604B0BDE8F087A08601005D
:101090002D31010040420F007B14AE47E17A24401D
:1010A000E0FFEF4000408F40E17A144003480068C1
:1010B000C0430349C1F890017047000090012242EB
:1010C0000000224208B501211020FFF76DFA102020
:1010D000ADF800008DF8030003208DF8020069468A
:1010E0000348FFF72AF910210148FFF7B5F908BDB9
:1010F0000010014070B502460B464FF6FF71002408
:1011000011E010784140002508E001F00106491087
:1011100016B14AF201004140681CC5B2082DF4DB4B
:10112000521C601CC4B29C42EBDB0806000C40EA77
:10113000112070BD10B504466FF00400FFF7D2FC1B
:10114000E11704EB5171C1F3C701074A1170104652
:10115000007800EB4001C1EBC0104FF6FF7101EACF
:10116000C0000249088010BD1400002016000020B5
:1011700001460D4A12884A434FF0E0235A6100228B
:101180009A6101221A6100BF4FF0E022106900F05D
:1011900001021AB100F48032002AF5D000224FF08B
:1011A000E0231A619A6170471600002001460D4A3B
:1011B00012784A434FF0E0235A6100229A610122DB
:1011C0001A6100BF4FF0E022106900F001021AB16D
:1011D00000F48032002AF5D000224FF0E0231A619B
:1011E0009A6170471400002070B506460C461546FB
:1011F0003046FFF735F92946204600F001F870BD6A
:1012000070B504460D46184908882946FFF7DAFEEE
:101210002080154948882946FFF7D4FE608012498E
:1012200088882946FFF7CEFEA0800F49C888294646
:10123000FFF7C8FEE0800C4908892946FFF7C2FE87
:101240002081094948892946FFF7BCFE608106498B
:1012500088892946FFF7B6FEA0810349C889294637
:10126000FFF7B0FEE08170BD0023002008B501212A
:101270004020FFF799F91C20ADF8000048208DF8B8
:10128000030069460148FFF758F808BD00180140FF
:1012900010B51C48007848B31B48006818B11A48BC
:1012A000001D006810BB0A20FFF762FF00201549EF
:1012B000087015480068A8B900201449086014494E
:1012C000C1F89C011149083108601149C1F8A40115
:1012D000002201218807FFF7A7FC00200B490839ED
:1012E00008600EE0152000F029FB0AE006480068BF
:1012F000012806D10448001D0068012801D10149D8
:10130000087010BD220000200801234298012242EB
:101310000000224203480068C0430349C1F890011D
:1013200070470000900121420000214208B50121D0
:101330000420FFF739F91020ADF800008DF8030004
:1013400003208DF8020069460348FEF7F6FF1021DE
:101350000148FFF783F808BD00080140FFF7D8FBFC
:10136000FFF7B7F84820FFF7E5FEFFF77FFF00F033
:1013700015FB00F09DFA48214FF4FA7000F090FB45
:1013800048214FF4967000F0C3FBFEF75BFF00218D
:101390004FF4165000F030FC41E00825002632469C
:1013A0001F492846FFF720FF002431E01C4830F891
:1013B0001400642814DD1A4830F81400B0F5167FC4
:1013C0000EDA012211469007FFF72EFC204600F0AE
:1013D000B5FA0120134908601349C1F89C0115E0D2
:1013E0000F4830F8140041F6D71188420EDD012273
:1013F00011469007FFF718FC204600F09FFA0120E5
:101400000849083108600849C1F8A401601CC4B249
:10141000082CCBDBFFF73CFFFFF774F900BFBCE7FC
:1014200010230020980122420000224270B55C483F
:1014300040795B49097940EA01205A4908805A48B5
:1014400000880988084464287EDA5548007857499E
:10145000087053484078487052490888C11700EB1B
:101460005171CD104F490888C11700EB5171C91057
:10147000A0EBC10109B1681C85B24C498D700024F4
:1014800061E0E11704EB5171C910A4EBC10141B94E
:1014900000222046E11704EB5171C910C91C434BCF
:1014A0005A54E11704EB5171C910C91C3F4A515CF1
:1014B0004A102046E11704EB5171C910C91C3B4B7F
:1014C0005A54E11704EB5171C910C91C1A46515CFA
:1014D000354A12882244364B53F822201268802362
:1014E00003EAC2121143E21704EB5272D210D21C6B
:1014F0002E4B99542B480088401EA04221D12949E7
:101500000888C11700EB5171C910A0EBC101C1B12E
:10151000E21704EB5272D210D21C9A5C214B19884C
:10152000CB1701EB5373DB10A1EBC303C3F108032B
:101530001A412046E31704EB5373DB10DB1C1B4EF0
:10154000F254601C84B200E01AE01648008884421D
:1015500097DBE81CC1B21548FFF7CCFD15490880A0
:1015600008460088010A114AE81C11541148017804
:10157000281D1154681DC1B21046FFF79FF80EE0F8
:1015800007480078094908700548407840F0800015
:1015900048700220887003210448FFF78FF870BD5F
:1015A000400000201C0000201A00002040080020FD
:1015B000D01100201E00002070B55C4840795B49C6
:1015C000097940EA01205A4908805A480088098868
:1015D000084464287EDA5548007857490870534813
:1015E0004078487052490888C11700EB5171CD10FE
:1015F0004F490888C11700EB5171C910A0EBC10118
:1016000009B1681C85B24C498D70002461E0E11776
:1016100004EB5171C910A4EBC10141B9002220466D
:10162000E11704EB5171C910C91C434B5A54E1171F
:1016300004EB5171C910C91C3F4A515C4A10204645
:10164000E11704EB5171C910C91C3B4B5A54E11707
:1016500004EB5171C910C91C1A46515C354A1288F5
:101660002244364B53F822201268802303EAC21228
:101670001143E21704EB5272D210D21C2E4B995434
:101680002B480088401EA04221D129490888C11753
:1016900000EB5171C910A0EBC101C1B1E21704EB1D
:1016A0005272D210D21C9A5C214B1988CB1701EBD5
:1016B0005373DB10A1EBC303C3F108031A412046A7
:1016C000E31704EB5373DB10DB1C1B4EF254601C5E
:1016D00084B200E01AE016480088844297DBE81CD8
:1016E000C1B21548FFF706FD154908800846008875
:1016F000010A114AE81C115411480178281D11549F
:10170000681DC1B21046FEF7D9FF0EE00748007809
:10171000094908700548407840F080004870022070
:10172000887003210448FEF7C9FF70BD4000002007
:101730001C0000201A00002040080020401000205B
:101740001E00002010B5394840793849097940EA2F
:101750000120374908803748008809880844B0F5D7
:101760007A7F53DA31480078334908702F4840783F
:1017700048702F4800784006000E8870002419E059
:101780002C48008820442D4951F820000088000A88
:10179000032101EB4401284A505426480088204484
:1017A000264951F820000078042101EB44015054EF
:1017B000601CC4B21E4800888442E1DB1C480078EB
:1017C000032202EB4000C1B21B48FFF793FC1C4907
:1017D000088008460088010A15480088032202EBA9
:1017E0004000154A11541648017811480088042217
:1017F00002EB4000104A11540D480078052202EB1C
:101800004000C1B20C48FEF759FF0EE007480078CF
:10181000094908700548407840F08000487002206F
:10182000887003210448FEF749FF10BD40000020E6
:101830001C0000201A000020400800206013002037
:101840001E0000200F4810490860001D48600F4826
:101850000F490860001D4860001D8860001DC860B9
:101860000C480D490860801C4860801C8860801C02
:10187000C860801C0861801C4861801C8861801CD5
:10188000C861704710012242401000209881214217
:10189000D0110020102300206013002010B5034851
:1018A000FEF7D6FD040A204610BD000000180140D6
:1018B00008B501210820FEF777FE01212020FEF760
:1018C00073FE4FF47F40ADF8000010208DF8030048
:1018D00003208DF8020069461648FEF72EFD4FF4EE
:1018E0007F411448FEF7BAFD4FF40060ADF80000E8
:1018F00010208DF8030003208DF8020069460E4881
:10190000FEF71BFD4FF400610B48FEF7A5FD4FF4F9
:101910008050ADF8000010208DF80300694606489D
:10192000FEF70BFD4FF480510348FEF797FD00F0E2
:1019300051F808BD00140140000C014010B50446E8
:101940004FF480511248FEF787FD4FF48071114823
:10195000FEF784FD4FF400710E48FEF77FFD0E493F
:10196000085D00F081F84FF480710A48FEF774FDBD
:101970004FF400710748FEF76FFD4FF480510448A3
:10198000FEF76CFD4FF480510148FEF765FD10BD78
:10199000000C0140001401402300002008B5012183
:1019A0001020FEF701FE4FF47070ADF8000010201B
:1019B0008DF8030003208DF8020069460448FEF705
:1019C000BCFC4FF470710248FEF746FD08BD0000F4
:1019D0000010014000B587B001210820FEF7E4FDAA
:1019E00001218803FEF7C0FD4FF46040ADF81800F8
:1019F00018208DF81B0003208DF81A0006A918483E
:101A0000FEF79BFC4FF460411548FEF727FD0020D0
:101A1000ADF804004FF48270ADF806000020ADF878
:101A200008000220ADF80A000120ADF80C004002C9
:101A3000ADF80E001820ADF810000020ADF812002F
:101A40000720ADF8140001A90648FEF76FFF012139
:101A50000448FEF701FFFF2000F006F807B000BDC4
:101A6000000C01400038004010B5044600BF0221C0
:101A70000A48FEF74DFF0028F9D021460748FEF737
:101A800053FF00BF01210548FEF742FF0028F9D0AF
:101A90000248FEF746FFC0B210BD0000003800400B
:101AA0007FB505460C4601210846FEF75DFD05EBB6
:101AB00085000121C1EB400080B2ADF8080004EBC5
:101AC000C40000EB0410C1EB800080B2ADF804004C
:101AD0000020ADF80A00ADF8060001A94FF08040E3
:101AE000FFF7AEF81C208DF8000000208DF80100F3
:101AF00005208DF8020001208DF803006846FEF7EE
:101B0000EFFC01218807FFF772F8FFF7DBFA7FBDD2
:101B10007FB505460C4601210220FEF725FD05EBA9
:101B200085000121C1EB400080B2ADF8080004EB54
:101B3000C40000EB0410C1EB800080B2ADF80400DB
:101B40000020ADF80A00ADF8060001A90E48FFF725
:101B500077F81D208DF8000000208DF801000C2082
:101B60008DF8020001208DF803006846FEF7B8FCEE
:101B7000012211460448FFF757F801210248FFF7F8
:101B800036F8FFF7D3FB7FBD000400401FB50121ED
:101B90000420FEF7E9FC1648008800EB80004FF6B1
:101BA000FF7101EA4000ADF8080041F61F40ADF8B2
:101BB00004000020ADF80A00ADF8060001A90D48A8
:101BC000FFF73EF81E208DF8000001208DF801007F
:101BD00004208DF8020001208DF803006846FEF70E
:101BE0007FFC012211460348FFF71EF81FBD0000CD
:101BF0003A0000200008004030B587B005460C468A
:101C000001214804FEF7B0FC01210520FEF7CCFCC1
:101C10000420ADF8180018208DF81B0003208DF863
:101C20001A0006A93748FEF788FB04213548FEF75D
:101C300015FC0820ADF8180004208DF81B0006A93B
:101C40003048FEF77AFB0220ADF8180010208DF81E
:101C50001B0003208DF81A0006A92A48FEF76DFB29
:101C600002212848FEF7F8FB2748FFF789F802957C
:101C70000020ADF80C00ADF80E00ADF814000C20FB
:101C8000ADF8120024B1012C06D0022C0ED108E0D0
:101C90000020ADF8100009E04FF4C060ADF810006E
:101CA00004E04FF48060ADF8100000BF00BF02A94F
:101CB0001548FFF70FF926208DF8040001208DF854
:101CC000050003208DF8060001208DF8070001A80B
:101CD000FEF706FC40210C48FFF73CF8012240F2D9
:101CE00025510948FFF7D1F801210748FFF73BF8D4
:101CF000002006490860FFF749FFFFF7A3FD07B082
:101D000030BD000000080140004400408401214231
:101D10002DE9C04130B4DFF8A0C23CEA111418BF6D
:101D20003CEA131400F0EC8081EA03051CEA11146C
:101D300044EAD57418BF1CEA131500F0C780A4EB61
:101D400005044FF0004545EAC12145EAC32341EAB5
:101D5000505143EA525304F17F74994204F5003420
:101D60004FEAC0204FEAC22208BF904200F09C8098
:101D70004FEA13650FF24016765D4FEA134506FBF6
:101D800005F7C7F1807706FB07F74FEAD737A7FBC0
:101D900003687642C8F58038A7FB06CE38BFA8F1A5
:101DA000010807FB08E64FF0000EA6FB028CE6FBDD
:101DB00003CEDCF1000CCEF1004E38BFAEF1010EC7
:101DC000A6FB0C584FF000074FF00005E6FB0E870E
:101DD000A1FB08C6A0FB07CE16EB0E0645F10005D9
:101DE000E1FB076515F1E04E7EBFA4F580345FEAA4
:101DF00046066D4116F1800745F100054FEA1727A9
:101E00004FEA066647EA0567A6F1DE46B6F1805F4F
:101E10004FEA15251FD9384624F0010C05EBC47193
:101E2000BCF1FE6F01EB0C1102D8F0BCBDE80081E3
:101E300024425CBF01F5801E9EEAC47F02D4F0BC40
:101E4000BDE80081244238D4F0BCA1F1C041BDE816
:101E5000004100F0F1B94FEAD22242EA43524FEA80
:101E6000D323A7FB02864FEAD02040EA415007FB6C
:101E700003661EEA0E0F4FEAD12105FB026658BF2A
:101E8000A6EB0056B6EB00564FEA520E4EEAC37E62
:101E900018EB0E0E56EB530EBDD518EB02085E4143
:101EA0007F1C55F10005B6E74FF480154FF0000791
:101EB0004FF000064FF00008ADE7F0BC4FF0000017
:101EC00001F1C04101F00041BDE8008111EA0C1FA1
:101ED0000CEA131500D00CE013EA0C1F00F025806B
:101EE0004FF00000F0BC81EA030101F00041BDE8C1
:101EF0000081F0BCBDE8004181EA030100F09CB91B
:101F0000F0BCBDE8004170B500F048F9097EFC3E28
:101F100000F007B881EA03014FF0000001F0004132
:101F2000704781EA030100F087B9F0BCBDE80041C9
:101F30004FF0000021497047FFFDFBF9F7F5F4F27F
:101F4000F0EEEDEBE9E8E6E4E3E1E0DEDDDBDAD854
:101F5000D7D5D4D3D1D0CFCDCCCBCAC8C7C6C5C4B2
:101F6000C2C1C0BFBEBDBCBBBAB9B8B7B6B5B4B3C9
:101F7000B2B1B0AFAEADACABAAA9A8A8A7A6A5A4B4
:101F8000A3A3A2A1A09F9F9E9D9C9C9B9A99999878
:101F90009797969595949393929191908F8F8E8E1B
:101FA0008D8C8C8B8B8A89898888878786858584A8
:101FB00084838382828181800000FF070000F87F94
:101FC0004FEA1153A3F58063D3F11E03A8BFD3F1E9
:101FD000200C08DB4FF0004242EAC12252EA505284
:101FE00032FA03F0704709420BD4102BC4BF002013
:101FF000704703F5787CBCF1FF3F05D04FF0FF3010
:1020000070474FF00000704770B500F0C7F800BF90
:102010004992248000207047F0E710F0004248BF4A
:102020004042B0FA80F310FA03F10AD0C3F11D0365
:1020300003F580634FEA415002EB035202EBD121DA
:1020400070474FF000007047DFF848C170B51CEAD8
:10205000111E1EBF1CEA13159EEA0C0F95EA0C0F09
:1020600000F06F8081EA030423EA4C134EEAD47E29
:1020700021EA4C1141F4801143F48013AE44A1FBDA
:10208000024CA0FB0365AEF17F7E361955EB0C05C3
:10209000A1FB034C4CF10003A0FB021C16EB0C0649
:1020A000654153F10003094218BF46F0010613F4DD
:1020B000007F0BD14FEA03314FEA0530340341EA88
:1020C000155140EA16506FF003020AE04FEAC321AF
:1020D0004FEAC520F40241EA555140EA56506FF0EC
:1020E000020202EB2E4201EB025585EACE710AD0C4
:1020F0005FEA440C18BF24F0004450F1000041F1A5
:10210000000120EAD47040F2FE7C624500D270BD2E
:10211000A84214BF4FF080444FF04044002E08BF47
:102120000024BEF1806FA8BFA1F1C041BDE870409E
:1021300080F282804FF0000001F1C04101F00041C7
:1021400070479EEA0C0F0CEA131518BF95EA0C0FA6
:1021500006D04FF0000081EA030E0EF0004170BD82
:1021600000F01CF88900013E00F007B800F009B843
:102170004FEA430C5FEA5C5C08D081EA030100F09F
:102180005BB84FEA410C5FEA5C5CF6D14FF00000AF
:10219000014970470000FF070000F87F0EF1020EB2
:1021A0002EF0030E5EF8046B364205D4012A43EB91
:1021B000030515F5001F12D8012841EB010C1CF591
:1021C000001F0CD80ED14FEAD17C15F5001F0CEB87
:1021D0004C0C0CF1020C08BF4CEBD37C04E04FF02C
:1021E000080C01E04FEAD37C0CEB4C0526FA05F60F
:1021F00006F00706B6F1040C06D20EEB860CBDE81D
:1022000070404CF0010C6047DFE80CF0090B020253
:102210004FF000414FF00000A1F5002170BD1946BC
:102220001046012851EB010418BFD4F5001484BFF7
:10223000002001F0004170BD0808A0F500114FEA30
:1022400031017047642200080000002040000000B7
:1022500028010008A42200084000002040290000B6
:10226000440100080000000001020304010203040D
:10227000060708090204060800000000000000002C
:10228000000000000000017E2457672D6B7B647FF7
:102290006F7D3B5A375B595D3E2F1AFF00000400EB
:0422A000000000003A
:04000005080000ED02
:00000001FF
